:03000000020701F3
:0C070100787FE4F6D8FD75811E020748E1
:10080D00020A03E8010C00011100011200020D00A3
:10081D0000020F0000021700000213000002150075
:05082D000002080000BC
:0A08800000007F6C7E90DEFEDFFCBE
:01088A00224B
:0D087300438E805389F0C28DD2A9C2A82205
:10000E0053877F759850438E04759CB8438E014379
:05001E008E10D2AC229F
:0F085600E4F5A0120880C290C291C292D2AF22E4
:10002600E4F51BF51CF51DF51EE50E2510FFE50D87
:10003600350FFEE5182FF51EE5173EF51DD3E51E17
:10004600950BE51D950A400DE4F517F518F50FF526
:1000560010F50DF50EE51E451D700302014DAC0DA4
:10006600AD0EE41204C1C004C005C006C007AC1D35
:10007600AD1EE41204C1A804A905AA06AB07D00761
:10008600D006D005D00412041FC004C005C006C0A7
:1000960007AC0AAD0BE41204C1D003D002D001D0E4
:1000A600001203161204FA8E138F14AC0FAD10E46F
:1000B6001204C1C004C005C006C007AC1DAD1EE4D5
:1000C6001204C1A804A905AA06AB07D007D006D01A
:1000D60005D00412041FC004C005C006C007AC0A40
:1000E600AD0BE41204C1D003D002D001D00012033C
:1000F600161204FA8E158F16AC17AD18E41204C149
:10010600C004C005C006C007AC1DAD1EE41204C184
:10011600A804A905AA06AB07D007D006D005D004C7
:1001260012041FC004C005C006C007AC0AAD0BE42C
:100136001204C1D003D002D001D00012031612045B
:10014600FA8E088F098012851708851809850F15FC
:10015600851016850D13850E14E5142516FFE51377
:100166003515FEE5092FF51CE5083EF51BE51C6572
:100176000B7004E51B650A701BAE13AF14FC7D0BF8
:1001860012057BC374FF9FF51474FF9EF513AE151D
:10019600AF168072E51C451B7003020307C3E51CFE
:1001A600950BE51B950A4003020307AF12EF641097
:1001B6006005EF64047070E5144513C3603AE50BFF
:1001C6009509FFE50A9508FEC3EF9516FFEE95150E
:1001D600FE7C007D0B12057BC374FF9FF51474FF34
:1001E6009EF513AE08AF0912057BC374FF9FF50990
:1001F60074FF9EF5080202F4E50B9509FFE50A95E2
:1002060008FE7C007D0B12057BC374FF9FF51674F8
:10021600FF9EF515AE08AF0912057BC374FF9FF567
:100226000974FF9EF50822AF12EF64206005EF64A3
:10023600027061E5164515C3602BE50B9509FFE5D0
:100246000A9508FEC3EF9514FFEE9513FE7C007D1C
:100256000B12057BC374FF9FF51674FF9EF515AE52
:1002660008AF09800EE50B9514FFE50A9513FE7C91
:10027600007D0B12057BC374FF9FF50974FF9EF585
:1002860008AE13AF1412057BC374FF9FF51474FFF9
:100296009EF51322AF12EF64406005EF6408706F9D
:1002A600E5094508C3602BE50B9516FFE50A95158C
:1002B600FEC3EF9514FFEE9513FE7C007D0B120531
:1002C6007BC374FF9FF50974FF9EF508AE13AF1448
:1002D600800EE50B9516FFE50A9515FE7C007D0B55
:1002E60012057BC374FF9FF51474FF9EF513AE15BC
:1002F600AF1612057BC374FF9FF51674FF9EF515A6
:0F0306002274FFF513F514F515F516F508F50932
:0103150022C5
:10059B00E4F519F51AAFA0EF700302066DC28C12C9
:1005AB000880AFA0EF700302064A85A012E5122463
:1005BB00FE603D24FE601A24FC605424E86027246E
:1005CB00E060422430705B050EE50E7055050D8022
:1005DB0051C3E50E9401E50D94004046E50E150E52
:1005EB007040150D803C0510E5107036050F8032FC
:1005FB00C3E5109401E50F94004027E5101510702A
:10060B0021150F801D0518E518701705178013C3EA
:10061B00E5189401E51794004008E51815187002C9
:10062B001517120026E51A643245196012AFA0EFB8
:10063B00600D120880051AE51A70EA051980E6E5C7
:10064B00182510FFE517350FFEE50E2FFFE50D3EC4
:10065B004F7007C28CF511F50C22C28C751101E499
:02066B00F50C8C
:01066D00226A
:06086500FF12086B7F206A
:08086B008F993099FDC299221A
:10066E00E5182510FDE517350FFCE50E2DFDE50D02
:10067E003C4D607BE511607AC28CE4F511E50CFD12
:10068E003395E0FC4D701FE513F58CE514F58AD318
:10069E00E50E9400E50D940040057590018003E48D
:1006AE00F590050C8046ED64014C701AE515F58C3D
:1006BE00E516F58AE510450F60057590028003E496
:1006CE00F590050C8026AF0CEF3395E0FEEF64023B
:1006DE004E7019E508F58CE509F58AE518451760A1
:1006EE00057590048003E4F590E4F50CD28C22E4B9
:0206FE00F59075
:0107000022D6
:1008330012085612087312000E7511011200267F5A
:100843008812086BAFA0EF700512066E80F61205D2
:030853009B80F196
:03000B00020003ED
:06000300C28C75110132F0
:0300230002078D44
:09078D00C0E0C0D075D000C00727
:10079600C28C30986BAF99EF64617062E50DFF1201
:1007A600086BE50E120865E50FFF12086BE51012DF
:1007B6000865E517FF12086BE518FF12086B7F0A3C
:1007C60012086BE513FF12086BE514120865E515B0
:1007D600FF12086BE516120865E508FF12086BE5BF
:1007E60009FF12086B7F0A12086BAFA012086B7F15
:1007F6000A12086BAF9012086B7F0A12086BC29838
:07080600D007D0D0D0E03292
:10031600EC4D6011E8497017ED33EC3304600DE4E1
:10032600FCFFFEFD22E933E8330470F8020566128D
:10033600053158046009E4CC24815006285009028E
:10034600057028400302056DC0E0EB4A7044B98091
:1003560006D0E0FB02055CEF4E701CBD8008EBFF8B
:10036600EAFEE9FD80EBE98DF0A4FEE5F00203FF6D
:10037600E9CDF9EAFEEBFFEF89F0A4FCE5F0CE89C2
:10038600F0A42EFFE435F0CD89F0A42DFEE435F07F
:100396008067EF4E7005BD80D780C3EF8BF0A4ACAD
:1003A600F0EE8BF0A42CFCE435F0F8EF8AF0A42CE8
:1003B600E5F038FCE433CB8DF0A42CFCE5F03BF8FB
:1003C600EE8AF0A42CFCE5F038F8E433CF89F0A4EB
:1003D6002CFCE5F038CF3400CE89F0A42FFFE5F0F1
:1003E6003EFEE433C98DF0A42EFEE5F039CD8AF049
:1003F600A42FFFE5F03EFEE43DFD33D0E0FB5007C1
:100406000BBB000F020570EC2CFCEF33FFEE33FE46
:06041600ED33FD02054874
:10041C00020570EC5D046005E85904700302056682
:10042C00120531580460F6EC4860F2EC7004FDFEE5
:10043C00FF22C860DB2481C85009C39860025006B3
:10044C0002056D9850CAF582E9294B4A7005AB82BA
:10045C0002055C75F0007C1A7880C3EF9BEE9AED78
:10046C0099400DC3EF9BFFEE9AFEED99FDE842F02B
:10047C00DC23ACF0D0E0FFD0E0FED0E0FDAB82207E
:10048C00E7101BEB60BAEC2CFCEF33FFEE33FEED08
:10049C0033FD020548E803F830E705C0F075F000BD
:1004AC00EF2FFFEE33FEED33FD40B830E7C280AAEC
:1004BC0075F020800E75F010800575F0087D007EBB
:1004CC00007F003392D530D50312058DEC334010EC
:1004DC00EF33FFEE33FEED33FDEC33FCD5F0ED22C4
:0E04EC00E5F0247EA2D513CC92E7CDCEFF2200
:1004FA00EDD2E7CD33EC3392D524814006E4FFFEFA
:10050A00FDFC22FCE4CFCECDCC24E0501174FF8058
:10051A00EDC3CC13CCCD13CDCE13CECF13CF0470F5
:07052A00F030D5DE02058D63
:10053100E9D2E7C933E833F892D5EDD2E7CD33EC10
:0705410033FC5002B2D52289
:10054800EC30E7100FBF000C0EBE00080DBD000414
:100558000BEB6014A2D5EB13FCED92E7FD2274FFC0
:10056800FCFDFEFF22E480F8A2D574FF13FC7D8019
:03057800E480EF2D
:10070D00020833E493A3F8E493A34003F68001F2C7
:10071D0008DFF48029E493A3F85407240CC8C333ED
:10072D00C4540F4420C8834004F456800146F6DFBC
:10073D00E4800B010204081020408090080DE47E37
:10074D00019360BCA3FF543F30E509541FFEE493B1
:10075D00A360010ECF54C025E060A840B8E493A378
:10076D00FAE493A3F8E493A3C8C582C8CAC583CAA3
:10077D00F0A3C8C582C8CAC583CADFE9DEE780BE5B
:0108320000C5
:10057B00EF8DF0A4A8F0CF8CF0A428CE8DF0A42E94
:02058B00FE224E
:0E058D00C3E49FFFE49EFEE49DFDE49CFC227F
:00000001FF
